:1000000000308A00A72900000A108A100A1182070E
:100010001F341F341F341F341F341F341F340E3459
:100020000E340E340E340A3404340E340E340E34CE
:100030000E3400340E340E3411340E340E340C34BD
:100040000A3406340E340E3411340E340E340E34A9
:100050000E340E340E340E340E340E3400340E349E
:100060000E34113400340F340F340F340F340F3486
:100070000F3400341B341B341B341B341B3400344A
:1000800001341634163416341634163401340E3452
:100090000E340E3400340E340E3411340134163460
:1000A0001634163416341634013400340F340F3439
:1000B00003340F340F34003401341E341E34113431
:1000C0000F340F34103408110330F700F70B662893
:1000D00008158A110A12E129F701F8013E080310F8
:1000E0003F18F707F70CF80CBF18F707F70CF80CD8
:1000F0003F19F707F70CF80CBF19F707F70CF80CC6
:100100003F1AF707F70CF80CBF1AF707F70CF80CB3
:100110003F1BF707F70CF80CBF1BF707F70CF80CA1
:1001200000340330F700F70B932888100330F700F2
:10013000F70B9828881400342C08BE000730BF0045
:100140006C203C0878070420F800A7002908043C2C
:100150000318AF28271E0810271A08149120290811
:10016000033C0318B828A71D0810A71908149120EC
:100170002908023C0318C128271D08102719081454
:1001800091202908013C0318CA28A71C0810A718A9
:10019000081491202908003C0318D328271C0810B4
:1001A000271808149120081491200130A80028086D
:1001B000043C031C06292C30280784008313000804
:1001C000BE000730BF006C203C0878070420F80010
:1001D000A700271E0810271A08149120A71D081031
:1001E000A71908149120271D081027190814912019
:1001F000A71C0810A71808149120271C08102718FE
:100200000814912008149120A80AD7283108BE00AC
:100210000730BF006C203C0878070420F800A700D6
:100220002A08003C03181929271E0810271A081449
:1002300091202A08013C03182229A71D0810A7199C
:10024000081491202A08023C03182B29271D0810A6
:100250002719081491202A08033C03183429A71CE5
:100260000810A718081491202A08043C03183D29F7
:10027000271C081027180814912000343C308400F3
:1002800083130008031951290630F800F701F70B12
:100290004729F80B46297B30F700F70B4D29800BD7
:1002A00044290034A4012408063C031C6629860165
:1002B0002408BC009C2032302407840083130008EB
:1002C00086000130BC003E21A40A532900340130CD
:1002D000A5002508633C031C70295221A50A692941
:1002E00000342C08A200A3012308053C031C852927
:1002F000A20A22080D3C0319A2012C302307840016
:10030000831322088000A30A74298A110A12F8298B
:10031000A4012408063C031CA42986012408BC006F
:100320009C203230240784008313000886002B08A9
:10033000F80003199F290310860DF80B9B29013043
:10034000BC003E21A40A89298A110A12202A8401AC
:1003500083131F30830583161F149F141F159F11CD
:1003600007309C0008308312A0001430A100A601C1
:100370000530A900AA010130AB00AC000230AD008D
:100380000330AE000430AF000530B000B1010130E1
:10039000B2000230B3000430B4000830B5001030B1
:1003A000B6002030B7004030B800B901BA01BB0137
:1003B0000030831686008800831286010130880091
:1003C000632867216721B90A3A080319EB29013A22
:1003D0000319072A212A39082002031CF129522176
:1003E000062AB901AA0A2A08053C0318F929712925
:1003F000AA012A08053CA900BB0A3B084D3C03188A
:10040000062A0130BA00BB01B9016721212A390847
:10041000210203188829B901A608031D112AAB0A75
:10042000122AAB032B08073C0318182A0130A60038
:10043000260B202AAB08031D202AA601BA0167213A
:06044000212AE3296300FC
:02400E00723FFF
:00000001FF
;PIC16F877A
