:1000000000308A00332900000A108A100A11820782
:10001000003400340034003400340034003411342F
:100020001134113415341B341B3411341134113490
:1000300011341F34113411340E3411341334133489
:1000400015341934193411340E3411341134113477
:100050001134113411341134113411341F3411346A
:1000600011340E341E341034103410341034103463
:1000700010341F34043404340434043404341F347E
:100080001E34093409340934093409341E34113456
:10009000113411341F34113411340E341E34093428
:1000A00009340934093409341E341F34103410342F
:1000B0001E34103410341F340E34113401340E3415
:1000C000103411340E340330F700F70B6528003478
:1000D0000811632008158A110A12722963208810FA
:1000E000632088140034A00120080F3C031CC6289C
:1000F00023302007840083130008BC000730BD00B4
:10010000F701F8013C0803103D18F707F70CF80C4D
:10011000BD18F707F70CF80C3D19F707F70CF80CAA
:10012000BD19F707F70CF80C3D1AF707F70CF80C98
:10013000BD1AF707F70CF80C3D1BF707F70CF80C86
:10014000BD1BF707F70CF80C3A0878070420F800F5
:100150008700071E0810071A08146E20871D081054
:10016000871908146E20071D0810071908146E203F
:10017000871C0810871808146E20071C0810071821
:1001800008146E2008106E20A00A74280034013074
:10019000BA003A308400831300080319DC280630C3
:1001A000F800F701F70BD228F80BD1287B30F700C5
:1001B000F70BD828800BCF280034211C06132118F8
:1001C0000617BA017320221C061022180614C72035
:1001D000211C0610211806140130BA007320221CBD
:1001E000861022188614C720211C86102118861418
:1001F0000230BA007320221C061122180615C720EF
:10020000211C0611211806150330BA007320221C88
:10021000861122188615C720211C861121188615E3
:100220000430BA007320221C061222180616C720BA
:10023000211C0612211806160530BA007320221C54
:10024000861222188616C720211C861221188616AF
:100250000630BA007320221C061322180617C72086
:100260008A110A129529840183131F30830583168E
:100270001F149F141F159F1107309C00013083121B
:10028000A100A201A301A4000230A5000330A60032
:100290000430A7000530A8000630A9000730AA00E6
:1002A0000830AB000930AC000A30AD000B30AE00B6
:1002B0000C30AF00B0010130B1000230B2000830A4
:1002C000B300B401FF30B500B601B70100308316AA
:1002D0008600880087008312B500860187010130FF
:1002E00088006828B60A0319B70A37083402031CC5
:1002F0007F29031D7E29360833020318DD28B70144
:10030000B6012308B800B90139080F3C031C952930
:10031000B80A38080D3C0319B801233039078400A6
:0E032000831338088000B90A8429722963000B
:02400E00723FFF
:00000001FF
;PIC16F877A
