:1000000000308A00842900000A108A100A11820731
:100010000034003400340034003400340034003440
:100020000034003400340034003400340034003430
:100030000034003400340034003400340034003420
:100040000034003400340034003400340034003410
:1000500000340034003401340034003400340134FE
:1000600001340034003400340134013400340034ED
:1000700000340134013401340134013401340134D9
:1000800000340034003401340134003400340034CE
:1000900001340134003400340034013400340134BC
:1000A00001340134003401340034003400340134AC
:1000B000013400340034003401340134003400349D
:1000C000003401340134003400340034013401348C
:1000D000003400340034013400340134013401347C
:1000E000003401340134013401340034013400346B
:1000F000003400340034013400340034003400345F
:10010000013400340034003400340134003400344D
:10011000003400340134003400340034003401343D
:10012000003400340034003401340034003400342E
:10013000013401340034003400340134013400341B
:100140000034003401340134013401340134013409
:1001500001340034003400340134013400340034FC
:1001600000340134003401340134013400340330EC
:10017000F700F70BB9280034F701F8012F08031036
:100180003018F707F70CF80CB018F707F70CF80C55
:100190003019F707F70CF80CB019F707F70CF80C43
:1001A000301AF707F70CF80CB01AF707F70CF80C31
:1001B000301BF707F70CF80CB01BF707F70CF80C1F
:1001C00000340811B7200815A0012008043C031CC6
:1001D00009292C08AF002330B000BC207808AE00FD
:1001E0002D08AF000530B000BC2078082E0720078E
:1001F0000420003A031D02290810B7208810B720F8
:10020000881407290814B7208810B7208814A00A7A
:10021000E52800340130AC002C3084008313000842
:1002200003191F290630F800F701F70B1529F80B01
:1002300014297B30F700F70B1B29800B122900349F
:10024000211C0613211806172B08AC00AD01E12074
:10025000221C0610221806140A21211C061021183F
:1002600006142B08AC000130AD00E120221C8610E2
:10027000221886140A21211C8610211886142B08A6
:10028000AC000230AD00E120221C06112218061538
:100290000A21211C0611211806152B08AC00033079
:1002A000AD00E120221C8611221886150A21211C8E
:1002B0008611211886152B08AC000430AD00E12012
:1002C000221C0612221806160A21211C06122118C9
:1002D00006162B08AC000530AD00E120221C86126A
:1002E000221886160A21211C8612211886162B0830
:1002F000AC000630AD00E120221C061322180617C0
:100300000A218A110A12B929840183131F30830537
:1003100083161F149F141F159F1107309C00013076
:100320008312A100A201A601A7013230A800A901F1
:100330000130AA00003083168600880083128601EF
:1003400001308800A60A0319A70A27082902031CFE
:10035000B229031DAF2926082802031CB2292A0846
:10036000AB002029A701A601AA0A2A08043C031C05
:06037000AA01A2296300AE
:02400E00723FFF
:00000001FF
;PIC16F877A
