:1000000000308A00C92900000A108A100A118207EC
:100010001F341F341F341F341F341F341F340E3459
:100020000E340E340E340A3404340E340E340E34CE
:100030000E3400340E340E3411340E340E340C34BD
:100040000A3406340E340E3411340E340E340E34A9
:100050000E340E340E340E340E340E3400340E349E
:100060000E34113400340F340F340F340F340F3486
:100070000F3400341B341B341B341B341B3400344A
:1000800001341634163416341634163401340E3452
:100090000E340E3400340E340E3411340134163460
:1000A0001634163416341634013400340F340F3439
:1000B00003340F340F34003401341E341E34113431
:1000C0000F340F34103408110330F700F70B662893
:1000D00008158A110A12F929F701F80136080310E8
:1000E0003718F707F70CF80CB718F707F70CF80CE8
:1000F0003719F707F70CF80CB719F707F70CF80CD6
:10010000371AF707F70CF80CB71AF707F70CF80CC3
:10011000371BF707F70CF80CB71BF707F70CF80CB1
:1001200000340330F700F70B932888100330F700F2
:10013000F70B9828881400342A08B6000730B70057
:100140006C20340878070420F80087002808043C55
:100150000318AF28071E0810071A08149120280852
:10016000033C0318B828871D08108719081491202C
:100170002808023C0318C128071D08100719081495
:1001800091202808013C0318CA28871C08108718EA
:10019000081491202808003C0318D328071C0810D5
:1001A000071808149120081491200130A500250893
:1001B000043C031C06292A30250784008313000809
:1001C000B6000730B7006C20340878070420F80028
:1001D0008700071E0810071A08149120871D0810B1
:1001E000871908149120071D081007190814912079
:1001F000871C0810871808149120071C081007187E
:100200000814912008149120A50AD7282F08B600B9
:100210000730B7006C20340878070420F800870006
:100220002908003C03181929071E0810071A08148A
:1002300091202908013C03182229871D08108719DD
:10024000081491202908023C03182B29071D0810C7
:100250000719081491202908033C03183429871C26
:1002600008108718081491202908043C03183D2918
:10027000071C08100718081491200034343084003B
:1002800083130008031951290630F800F701F70B12
:100290004729F80B46297B30F700F70B4D29800BD7
:1002A00044290034261C061326180617B4019C2086
:1002B000271C0610271806140130B4003E21261C06
:1002C0000610261806140130B4009C20271C861046
:1002D000271886140130B4003E21261C86102618EB
:1002E00086140230B4009C20271C0611271806151E
:1002F0000130B4003E21261C0611261806150330D5
:10030000B4009C20271C8611271886150130B400E4
:100310003E21261C8611261886150430B4009C2028
:10032000271C0612271806160130B4003E21261C91
:100330000612261806160530B4009C20271C8612CB
:10034000271886160130B4003E21261C8612261876
:1003500086160630B4009C20271C061327180617A3
:100360000130B4003E2100342A08A100A201220875
:10037000053C031CC829A10A21080D3C0319A10151
:100380002A3022078400831321088000A20AB7299B
:100390000034840183131F30830583161F149F14B8
:1003A0001F159F1107309C0008308312A000A60182
:1003B0000130A7000530A800A901AA010130AB0057
:1003C0000230AC000330AD000430AE000530AF00A9
:1003D000FF30B000B101B201B301003083168600D6
:1003E000880087008312B0008601870101308800F1
:1003F0006328B10A32080319012A013A03191B2A9A
:100400002F2A3308133C0318082A0130B200B30125
:1004100031082002031C0E2A52211A2AB101A90A0E
:100420002908053C0318162AB421A9012908053C0E
:10043000A800B30A2F2A31082002031C212A5221C6
:100440002D2AB101A90A2908053C0318292AB4213B
:10045000A9012908053CA800B30AB2012F2AF929ED
:02046000630037
:02400E00723FFF
:00000001FF
;PIC16F877A
