:1000000000308A00842900000A108A100A11820731
:100010000034003400340034003400340034003440
:100020000034003400340034003400340034003430
:100030000034003400340034003400340034003420
:100040000034003400340034003400340034003410
:1000500000340034003401340034003400340134FE
:1000600001340034003400340134013400340034ED
:1000700000340134013401340134013401340134D9
:1000800000340034003401340134003400340034CE
:1000900001340134003400340034013400340134BC
:1000A00001340134003401340034003400340134AC
:1000B000013400340034003401340134003400349D
:1000C000003401340134003400340034013401348C
:1000D000003400340034013400340134013401347C
:1000E000003401340134013401340034013400346B
:1000F000003400340034013400340034003400345F
:10010000013400340034003400340134003400344D
:10011000003400340134003400340034003401343D
:10012000003400340034003401340034003400342E
:10013000013401340034003400340134013400341B
:100140000034003401340134013401340134013409
:1001500001340034003400340134013400340034FC
:1001600000340134003401340134013400340330EC
:10017000F700F70BB9280034F701F8012C08031039
:100180002D18F707F70CF80CAD18F707F70CF80C5B
:100190002D19F707F70CF80CAD19F707F70CF80C49
:1001A0002D1AF707F70CF80CAD1AF707F70CF80C37
:1001B0002D1BF707F70CF80CAD1BF707F70CF80C25
:1001C00000340811B7200815A0012008043C031CC6
:1001D00009292908AC002330AD00BC207808AB0009
:1001E0002A08AC000530AD00BC2078082B0720079A
:1001F0000420003A031D02290810B7208810B720F8
:10020000881407290814B7208810B7208814A00A7A
:10021000E52800340130A900293084008313000848
:1002200003191F290630F800F701F70B1529F80B01
:1002300014297B30F700F70B1B29800B122900349F
:10024000211C0613211806172808A900AA01E1207D
:10025000221C0610221806140A21211C061021183F
:1002600006142808A9000130AA00E120221C8610EB
:10027000221886140A21211C8610211886142808A9
:10028000A9000230AA00E120221C0611221806153E
:100290000A21211C0611211806152808A90003307F
:1002A000AA00E120221C8611221886150A21211C91
:1002B0008611211886152808A9000430AA00E1201B
:1002C000221C0612221806160A21211C06122118C9
:1002D00006162808A9000530AA00E120221C861273
:1002E000221886160A21211C861221188616280833
:1002F000A9000630AA00E120221C061322180617C6
:100300000A218A110A12B929840183131F30830537
:1003100083161F149F141F159F1107309C00013076
:100320008312A100A201A301A4016430A500A601CB
:100330000130A70000308316860088008312061063
:1003400086100611861106128612061308148814E8
:100350000815A30A0319A40A24082602031CBA29B3
:10036000031DB62923082502031CBA292708A80063
:100370002029C229A401A301A70A2708043C0318C5
:08038000C229A701A9296300AD
:02400E00723FFF
:00000001FF
;PIC16F877A
