:1000000000308A00E62900000A108A100A118207CF
:100010007F347F347F347F347F347F347F340A10E1
:100020008A100A118207013476347634763401342A
:100030000A108A100A11820700340034363436342C
:10004000363449340A108A100A1182070034003409
:100050003E343E343E343E340A108A100A11820780
:100060003E34003400343E343E343E3441340A10D1
:100070008A100A1182073E34003400343634363494
:1000800036343E340A108A100A1182077C34081173
:10009000492808158A110A12552AB60A3930530719
:1000A0008400831300083602031D6C280130B6005B
:1000B0005308A100A20122080C3C031C6C28A10AD1
:1000C00021080D3C0319A10153302207840083133A
:1000D00021088000A20A5B2839305307840083136B
:1000E00036080002013EB800A2012208133C031C9E
:1000F0007F2838081D3C03187D28A20A7528B50101
:1001000038081E3C031C9228B50A5330350784007A
:100110008313393000078400831300083807013E39
:10012000B80080281E303802A20053303507840002
:100130008313393000078400831322080002B700BC
:100140000034A2288810A428881400346808F93ED6
:1001500003186229073E65296908A80028086A0271
:10016000031CC52828080420EB00F7006708F800E6
:100170000319BE280310F70CF80BBA28771C0810D7
:1001800077180814A120A80AAE2862296908A800D7
:100190006A0828020318DF2828080F20EB00F70060
:1001A0006708F8000319D8280310F70CF80BD428B7
:1001B000771C081077180814A120A80AC8286229FB
:1001C0006908A80028086A02031CF92828081820D2
:1001D000EB00F7006708F8000319F2280310F70C8A
:1001E000F80BEE28771C081077180814A120A80A2D
:1001F000E22862296908A80028086A02031C13295A
:1002000028082220EB00F7006708F80003190C29E2
:100210000310F70CF80B0829771C0810771808143E
:10022000A120A80AFC2862296908A80028086A02F7
:10023000031C2D2928082C20EB00F7006708F80084
:10024000031926290310F70CF80B2229771C081034
:1002500077180814A120A80A162962296908A8009D
:1002600028086A02031C472928083720EB00F700FA
:100270006708F800031940290310F70CF80B3C2914
:10028000771C081077180814A120A80A30296229C1
:100290006908A80028086A02031C6129280842206E
:1002A000EB00F7006708F80003195A290310F70C50
:1002B000F80B5629771C081077180814A120A80AF3
:1002C0004A2962290814A12000340A148A100A114C
:1002D0008207AC28C628E028FA2814292E294829A4
:1002E000A3012308063C031CE32987012308E2003D
:1002F00046305307840083130008E3003930530766
:10030000840083130008E4006208E7006308E80043
:100310003608E9006408EA00A6200130A900350883
:1003200029020318B2295330290784008313463069
:100330000007840083130008E40053302907840079
:10034000831339300007840083130008E600620835
:10035000E7006408E8000130E9006608EA00A6202A
:10036000A90A8F29533035078400831346300007CC
:10037000840083130008E4006208E7006408E800D2
:100380000130E9003708EA00A6202E302307840058
:100390008313000887000130E20062308400831379
:1003A00000080319E1290130F800F701F70BD629FD
:1003B000F80BD5294A30F700F70BDC29DF29800B31
:1003C000D329A30A71298A110A12612A840183138D
:1003D0001F30830583161F149F141F159F110730AC
:1003E0009C0032308312A000A501AA010530AB00A9
:1003F000AC010130AD00AE000230AF000430B000FF
:100400000830B1001030B2002030B3004030B400EA
:100410000730B900BA000630BB00BC00BD00BE000A
:100420000730BF00C000C100C2000130C300C400DB
:100430000730C5000130C600C7000230C800C9003F
:100440000330CA00CB000430CC00CD000530CE0014
:10045000CF000630D000D100D201D3010130D4004A
:100460000230D5000330D6000430D7000530D80064
:100470000630D9000730DA000830DB000930DC0034
:100480000A30DD000B30DE000C30DF00FF30E00012
:10049000E1010030831687008312E0008316880094
:1004A00083128701013088004728B601B701013067
:1004B000B5004D20E10A6108200203187029E1010E
:0604C0004D205A2A6300E2
:02400E00723FFF
:00000001FF
;PIC16F877A
