:1000000000308A00842900000A108A100A11820731
:100010000034003400340034003400340034003440
:100020000034003400340034003400340034003430
:100030000034003400340034003400340034003420
:100040000034003400340034003400340034003410
:1000500000340034003401340034003401340034FE
:1000600001340034003401340034013400340034ED
:1000700001340034013401340134013400340134DA
:1000800000340034013400340134003400340134CD
:1000900000340134003400340134003400340134BD
:1000A00001340034003401340034003401340034AD
:1000B000013400340034013400340134003400349D
:1000C000013400340134003400340134003401348C
:1000D000003400340134003400340134013400347D
:1000E000003401340134013401340034013400346B
:1000F000003400340034013400340034003400345F
:10010000013400340034003400340134003400344D
:10011000003400340134003400340034003401343D
:10012000003400340034003401340034003401342D
:10013000003401340034003401340034013400341C
:10014000003401340034013401340134013400340A
:1001500001340034003401340034013400340034FC
:1001600001340034003401340134003400340330ED
:10017000F700F70BB92800340811B72008158A11C9
:100180000A12A529F701F8012F0803103018F70704
:10019000F70CF80CB018F707F70CF80C3019F70744
:1001A000F70CF80CB019F707F70CF80C301AF70732
:1001B000F70CF80CB01AF707F70CF80C301BF70720
:1001C000F70CF80CB01BF707F70CF80C0034A00183
:1001D0002008023C031C1729A1012108043C031C30
:1001E000152924302007840083130008AF00233032
:1001F000B000C2207808AE002C08AF000530B00077
:10020000C22078082E0721070420003A031D0E297A
:100210000810B7208810B720881413290814B720B5
:100220008810B7208814A10AED28A00AE828003415
:100230000130AC002C3084008313000803192D29F1
:100240000630F800F701F70B2329F80B22297B3041
:10025000F700F70B2929800B20290034221C0613F4
:1002600022180617AC01E720231C061023180614D9
:100270001821221C0610221806140130AC00E720B9
:10028000231C8610231886141821221C861022187D
:1002900086140230AC00E720231C06112318061533
:1002A0001821221C0611221806150330AC00E72085
:1002B000231C8611231886151821221C861122184A
:1002C00086150430AC00E720231C061223180616FE
:1002D0001821221C0612221806160530AC00E72051
:1002E000231C8612231886161821221C8612221817
:1002F00086160630AC00E720231C061323180617C9
:1003000018218A110A12E229840183131F30830500
:1003100083161F149F141F159F1107309C00013076
:100320008312A200A301A401A5000230A600A70128
:10033000A8013230A900AA01003083168600880087
:100340008312860101308800BC28A70A0319A80A75
:1003500028082A02031CB229031DB12927082902F3
:1003600003182E29A801A7012408AB00AB08031D20
:10037000C0290130A4000230A5000330A600E22904
:100380002B0BC9290230A4000330A5000430A600BD
:10039000E2292B08023C031DD3290330A4000430BA
:1003A000A500A601E2292B08033C031DDD2904302A
:1003B000A400A5010130A600E229A4010130A50096
:0803C0000230A600A52963002C
:02400E00723FFF
:00000001FF
;PIC16F877A
