:1000000000308A00042900000A108A100A118207B1
:10001000003400340034003400340034003412342E
:10002000123412341E341234123412340C3412349A
:1000300012341234123412340C341E34103410348E
:1000400010341034103410341134113411341F347E
:10005000113411340E340330F700F70B2D2800341F
:1000600008112B2008158A110A123D29BB08031D0F
:100070003F2808102B2088102B20881444280814AF
:100080002B2088102B2088140034A00120080F3C5E
:10009000031C97282008BA000730BB00F701F801BD
:1000A0003A0803103B18F707F70CF80CBB18F707D2
:1000B000F70CF80C3B19F707F70CF80CBB19F7070E
:1000C000F70CF80C3B1AF707F70CF80CBB1AF707FC
:1000D000F70CF80C3B1BF707F70CF80CBB1BF707EA
:1000E000F70CF80C390878070420F8008500003078
:1000F00005180130BA00BB003620003085180130E9
:10010000BA00BB003620003005190130BA00BB0030
:100110003620003085190130BA00BB00362000308F
:10012000051A0130BA00BB003620A00A4628003468
:100130000130B90039308400831300080319AD2859
:100140000630F800F701F70BA328F80BA2287B3044
:10015000F700F70BA928800BA0280034211C0613F8
:1001600021180617B9014520221C06102218061472
:100170009820211C0610211806140130B9004520D2
:10018000221C8610221886149820211C8610211803
:1001900086140230B9004520221C061122180615CB
:1001A0009820211C0611211806150330B90045209E
:1001B000221C8611221886159820211C86112118D0
:1001C00086150430B9004520221C06122218061696
:1001D0009820211C0612211806160530B90045206A
:1001E000221C8612221886169820211C861221189D
:1001F00086160630B9004520221C06132218061761
:1002000098208A110A126029840183131F30830504
:1002100083161F149F141F159F1107309C00013077
:100220008312A100A201A301A4000230A5000330A3
:10023000A6000430A700A8010130A9000230AA00DE
:100240000330AB000430AC00AD010130AE00023031
:10025000AF000330B0000430B100B201B301B4010B
:100260000530B500B6010030831686008800850091
:1002700083128601013088003028B30A0319B40ABA
:1002800034083602031C4A29031D49293308350264
:100290000318AE28B401B3012308B700B801380829
:1002A0000F3C031C6029B70A3708053C0319B70146
:1002B000233038078400831337088000B80A4F2999
:0402C0003D29630071
:02400E00723FFF
:00000001FF
;PIC16F877A
