:1000000000308A00332900000A108A100A11820782
:100010001F341F341F341F341F341F341F340E3459
:100020000E340E340E340A3404340E340E340E34CE
:100030000E3400340E340E3411340E340E340C34BD
:100040000A3406340E340E3411340E340E340E34A9
:100050000E340E340E340E340E340E3400340E349E
:100060000E34113400340F340F340F340F340F3486
:100070000F3400341B341B341B341B341B3400344A
:1000800001341634163416341634163401340E3452
:100090000E340E3400340E340E3411340134163460
:1000A0001634163416341634013400340F340F3439
:1000B00003340F340F34003401341E341E34113431
:1000C0000F340F3410340330F700F70B6528003479
:1000D0000811632008158A110A125F29632088100D
:1000E000632088140034A2012208053C031CC628A2
:1000F00025302207840083130008B2000730B300C4
:10010000F701F801320803103318F707F70CF80C61
:10011000B318F707F70CF80C3319F707F70CF80CBE
:10012000B319F707F70CF80C331AF707F70CF80CAC
:10013000B31AF707F70CF80C331BF707F70CF80C9A
:10014000B31BF707F70CF80C300878070420F80009
:100150008700071E0810071A08146E20871D081054
:10016000871908146E20071D0810071908146E203F
:10017000871C0810871808146E20071C0810071821
:1001800008146E2008146E20A20A7428003401306E
:10019000B00030308400831300080319DC280630D7
:1001A000F800F701F70BD228F80BD1287B30F700C5
:1001B000F70BD828800BCF280034231C06132318F4
:1001C0000617B0017320241C061024180614C7203B
:1001D000231C0610231806140130B0007320241CC1
:1001E000861024188614C720231C86102318861412
:1001F0000230B0007320241C061124180615C720F5
:10020000231C0611231806150330B0007320241C8C
:10021000861124188615C720231C861123188615DD
:100220000430B0007320241C061224180616C720C0
:10023000231C0612231806160530B0007320241C58
:10024000861224188616C720231C861223188616A9
:100250000630B0007320241C061324180617C7208C
:100260008A110A128229840183131F3083058316A1
:100270001F149F141F159F1107309C0032308312EA
:10028000A000A101A3010130A400A501A600023035
:10029000A7000330A8000430A9000530AA00FF30F1
:1002A000AB00AC01AD0100308316860088008700EA
:1002B0008312AB0086018701013088006828AC0AF0
:1002C0000319AD0A2D082102031C6C29031D6B299B
:1002D0002C0820020318DD28AD01AC012508AE0072
:1002E000AF012F08053C031C8229AE0A2E080D3CE5
:1002F0000319AE0125302F07840083132E088000D8
:08030000AF0A71295F296300B7
:02400E00723FFF
:00000001FF
;PIC16F877A
