:1000000000308A00732A00000A108A100A11820741
:100010001F341F341F341F341F341F341F340E3459
:100020000E340E340E340A3404340E340E340E34CE
:100030000E3400340E340E3411340E340E340C34BD
:100040000A3406340E340E3411340E340E340E34A9
:100050000E340E340E340E340E340E3400340E349E
:100060000E34113400340F340F340F340F340F3486
:100070000F3400341B341B341B341B341B3400344A
:1000800001341634163416341634163401340E3452
:100090000E340E3400340E340E3411340134163460
:1000A0001634163416341634013400340F340F3439
:1000B00003340F340F34003401341E341E34113431
:1000C0000F340F34103408110330F700F70B662893
:1000D00008158A110A12A62AF701F8013808031038
:1000E0003918F707F70CF80CB918F707F70CF80CE4
:1000F0003919F707F70CF80CB919F707F70CF80CD2
:10010000391AF707F70CF80CB91AF707F70CF80CBF
:10011000391BF707F70CF80CB91BF707F70CF80CAD
:1001200000340330F700F70B932888100330F700F2
:10013000F70B9828881400342C08B8000730B90051
:100140006C20360878070420F80087002908043C52
:100150000318AF28071E0810071A08149120290851
:10016000033C0318B828871D08108719081491202C
:100170002908023C0318C128071D08100719081494
:1001800091202908013C0318CA28871C08108718E9
:10019000081491202908003C0318D328071C0810D4
:1001A000071808149120081491200130A600260891
:1001B000043C031C06292C30260784008313000806
:1001C000B8000730B9006C20360878070420F80022
:1001D0008700071E0810071A08149120871D0810B1
:1001E000871908149120071D081007190814912079
:1001F000871C0810871808149120071C081007187E
:100200000814912008149120A60AD7283108B800B4
:100210000730B9006C20360878070420F800870002
:100220002A08003C03181929071E0810071A081489
:1002300091202A08013C03182229871D08108719DC
:10024000081491202A08023C03182B29071D0810C6
:100250000719081491202A08033C03183429871C25
:1002600008108718081491202A08043C03183D2917
:10027000071C081007180814912000343630840039
:1002800083130008031951290630F800F701F70B12
:100290004729F80B46297B30F700F70B4D29800BD7
:1002A00044290034271C061327180617B6019C2082
:1002B000281C0610281806140130B6003E21271C01
:1002C0000610271806140130B6009C20281C861042
:1002D000281886140130B6003E21271C86102718E6
:1002E00086140230B6009C20281C0611281806151A
:1002F0000130B6003E21271C0611271806150330D1
:10030000B6009C20281C8611281886150130B600DE
:100310003E21271C8611271886150430B6009C2024
:10032000281C0612281806160130B6003E21271C8C
:100330000612271806160530B6009C20281C8612C7
:10034000281886160130B6003E21271C8612271871
:1003500086160630B6009C20281C0613281806179F
:100360000130B6003E2100342C08A200A30123086E
:10037000053C031CC829A20A22080D3C0319A2014E
:100380002C3023078400831322088000A30AB72996
:100390008A110A12BB2A0130A5002508C73C031C9C
:1003A000D4295221A50ACD298A110A12C92A860107
:1003B0008701B6019C20281C07102818071407087D
:1003C00086002B08F8000319E9290310860DF80BA5
:1003D000E5290130B6003E21860187010130B600D3
:1003E0009C20281C871028188714070886002B08D3
:1003F000F8000319FF290310860DF80BFB290130C3
:10040000B6003E21860187010230B6009C20281CE0
:10041000071128180715070886002B08F80003198C
:10042000152A0310860DF80B112A0130B6003E2163
:10043000860187010330B6009C20281C87112818EC
:100440008715070886002B08F80003192B2A0310CC
:10045000860DF80B272A0130B6003E218601870160
:100460000430B6009C20281C07122818071607081D
:1004700086002B08F8000319412A0310860DF80B9B
:100480003D2A0130B6003E21860187010530B600C5
:100490009C20281C871228188716070886002B081E
:1004A000F8000319572A0310860DF80B532A013060
:1004B000B6003E21860187010630B6009C20281C2C
:1004C000071328180717070886002B08F8000319D8
:1004D0006D2A0310860DF80B692A0130B6003E2103
:1004E0008A110A12D72A840183131F3083058316C9
:1004F0001F149F141F159F1107309C000830831292
:10050000A000C830A100A7010130A8000530A90053
:10051000AA010130AB00AC01AD000230AE000330E7
:10052000AF000430B0000530B100FF30B200B301BD
:10053000B401B5010030831686008800870083125D
:10054000B20086018701013088006328B30A3408AD
:100550000319AE2A013A0319CA2AD82A33082002FD
:10056000031CB42A5221C02AB301AA0A2A08053C56
:100570000318BC2AB429AA012A08053CA900B50A17
:100580003508133C0318C92A0130B400B501B30182
:10059000CB29D82A330821020318D729B301AB0A83
:1005A0002B08073C0318D72A0130AB00B401D82A26
:0405B000A62A630014
:02400E00723FFF
:00000001FF
;PIC16F877A
