:1000000000308A00BE2900000A108A100A118207F7
:100010001F341F341F341F341F341F341F340E3459
:100020000E340E340E340A3404340E340E340E34CE
:100030000E3400340E340E3411340E340E340C34BD
:100040000A3406340E340E3411340E340E340E34A9
:100050000E340E340E340E340E340E3400340E349E
:100060000E34113400340F340F340F340F340F3486
:100070000F3400341B341B341B341B341B3400344A
:1000800001341634163416341634163401340E3452
:100090000E340E3400340E340E3411340134163460
:1000A0001634163416341634013400340F340F3439
:1000B00003340F340F34003401341E341E34113431
:1000C0000F340F3410340811652808158A110A12EC
:1000D000FE29F701F801400803104118F707F70C53
:1000E000F80CC118F707F70CF80C4119F707F70CD3
:1000F000F80CC119F707F70CF80C411AF707F70CC1
:10010000F80CC11AF707F70CF80C411BF707F70CAE
:10011000F80CC11BF707F70CF80C00348F28881077
:100120009128881400342D08C0000730C1006920D0
:100130003E0878070420F800A7002A08043C0318AA
:10014000A628271E0810271A08148E202A08033C08
:100150000318AF28A71D0810A71908148E202A0815
:10016000023C0318B828271D0810271908148E20F0
:100170002A08013C0318C128A71C0810A718081456
:100180008E202A08003C0318CA28271C08102718AC
:1001900008148E2008148E200130A8002808043C82
:1001A000031CFD282D302807840083130008C0009D
:1001B0000730C10069203E0878070420F800A70036
:1001C000271E0810271A08148E20A71D0810A7192B
:1001D00008148E20271D0810271908148E20A71C2C
:1001E0000810A71808148E20271C081027180814B8
:1001F0008E2008148E20A80ACE283208C0000730AE
:10020000C10069203E0878070420F800A7002B08E9
:10021000003C03181029271E0810271A08148E20E6
:100220002B08013C03181929A71D0810A719081449
:100230008E202B08023C03182229271D081027199D
:1002400008148E202B08033C03182B29A71C081028
:10025000A71808148E202B08043C03183429271CE7
:100260000810271808148E2000343E3084008313B1
:100270000008031949290130F800F701F70B3E295E
:10028000F80B3D294A30F700F70B44294729800B2A
:100290003B290034A4012408063C031C5E29870185
:1002A0002408BE0093203330240784008313000801
:1002B00087000130BE003521A40A4B2900340130EB
:1002C000A5002508633C031C68294A21A50A612969
:1002D00000342D08A200A3012308053C031C7D293E
:1002E000A20A22080D3C0319A2012D302307840025
:1002F000831322088000A30A6C298A110A12182A83
:10030000A4012408063C031C9C2987012408BE0084
:1003100093203330240784008313000887002C08BF
:10032000F800031997290310870DF80B9329013062
:10033000BE003521A40A81298A110A12452AA40186
:100340002408063C031CBB2987012408BE00932017
:100350003330240784008313000887002C08F8003A
:100360000319B6290310870CF80BB2290130BE001F
:100370003521A40AA0298A110A125F2A8401831355
:100380001F30830583161F149F141F159F110730FC
:100390009C0005308312A0001430A100A601A90121
:1003A0000530AA00AB010130AC00AD000230AE0058
:1003B0000330AF000430B0000530B100B2010130AD
:1003C000B3000230B4000430B5000830B60010307D
:1003D000B7002030B8004030B900FF30BA00BB0190
:1003E000BC01BD010030831687008312BA0083165A
:1003F0008800831287010130880063285F215F2114
:10040000BB0A3C0803190B2A013A03192C2A033AA8
:100410000319462A602A3B082002031C112A4A219C
:100420002B2ABB01AB0A2B08053C0318192A6929A2
:10043000AB012B08053CAA00BD0A3D084D3C031842
:100440002B2ABD01BB01A90A2908BC002908023CCE
:100450000319A9015F21602A3B08210203188029A2
:10046000BB01A608031D362AAC0A372AAC032C08A8
:10047000073C03183D2A0130A600260B452AAC088C
:10048000031D452AA601BC015F21602A3B08210209
:1004900003189F29BB01A608031D502AAC0A512A44
:1004A000AC032C08073C0318572A0130A600260B82
:1004B0005F2AAC08031D5F2AA601BC015F21602AE8
:0404C000002A6300AB
:02400E00723FFF
:00000001FF
;PIC16F877A
