:1000000000308A00362A00000A108A100A1182077E
:100010001F341F341F341F341F341F341F340E3459
:100020000E340E3400340E340E34113401340E34D8
:100030000E3401340E340E34013410340F340F34C6
:100040000F340F340F341034013416341634163490
:1000500016341634013411340E340F3400340E3497
:1000600015341B340F340F340F3403340F340F3472
:10007000003411340E340E340C340F340E34113479
:100080000E340E340E3400340E340E340E3400347C
:100090001B341B341B341B341B34003413340B341B
:1000A0001B341B341B341B3400340E340D340B341E
:1000B00007340B340D340E3400340F340F340F3446
:1000C0000F340F340F340E340E340E340E340A3421
:1000D00004340E340E340E340C340A3406340E3428
:1000E0000E3411340E340E340E340E340E341134FA
:1000F0000F340F340F3401340E340E340134123403
:100100000D340D340D340D340D3413340E340D34E0
:100110000B3401340E340E34013411340E341E34D9
:1001200011340F340E3411341B341B341B341B3484
:100130001B341B34003411340E340E340E340E34A0
:100140000E340E341B341B34153415340E340E3477
:100150000E340E3404340A340E340E340E340E349D
:100160000E340E3415341B3415340E340E341B3457
:100170001B341B341B3415340E340E3400340F344E
:1001800017341B341D341E3400340E340E340C343A
:100190000A3406340F3408340811CE2808158A11A1
:1001A0000A128F2AF701F801510803105218F707B5
:1001B000F70CF80CD218F707F70CF80C5219F707E0
:1001C000F70CF80CD219F707F70CF80C521AF707CE
:1001D000F70CF80CD21AF707F70CF80C521BF707BC
:1001E000F70CF80CD21BF707F70CF80C0034F828C2
:1001F0008810FA28881400343A302D0784008313BD
:100200000008D1000730D200D2204E087807042021
:10021000F800A7002A08043C03181329271E081019
:10022000271A0814F7202A08033C03181C29A71DC5
:100230000810A7190814F7202A08023C03182529DA
:10024000271D081027190814F7202A08013C031855
:100250002E29A71C0810A7180814F7202A08003C0C
:1002600003183729271C081027180814F72008142A
:10027000F7200130A8002808043C031C6E292D300B
:100280002807840083133A30000784008313000892
:10029000D1000730D200D2204E0878070420F800A1
:1002A000A700271E0810271A0814F720A71D0810FA
:1002B000A7190814F720271D081027190814F7207C
:1002C000A71C0810A7180814F720271C08102718C7
:1002D0000814F7200814F720A80A3B293A303207FF
:1002E000840083130008D1000730D200D2204E08CA
:1002F00078070420F800A7002B08003C0318852984
:10030000271E0810271A0814F7202B08013C031891
:100310008E29A71D0810A7190814F7202B08023CE6
:1003200003189729271D081027190814F7202B08F0
:10033000033C0318A029A71C0810A7180814F720CD
:100340002B08043C0318A929271C08102718081497
:10035000F72000344E308400831300080319BE29AF
:100360000130F800F701F70BB329F80BB2294A3036
:10037000F700F70BB929BC29800BB0290034A40180
:100380002408063C031CD32987012408CE00FC2046
:100390003330240784008313000887000130CE0027
:1003A000AA21A40AC02900340130A5002508633C15
:1003B000031CDD29BF21A50AD62900342D08A2007F
:1003C000A3012308053C031CF529A20A45082202C3
:1003D000031DED29C6080319A2012D30230784004F
:1003E000831322088000A30AE1298A110A12A92A8C
:1003F000A4012408063C031C142A87012408CE000B
:10040000FC203330240784008313000887002C0865
:10041000F80003190F2A0310870DF80B0B2A01307F
:10042000CE00AA21A40AF9298A110A12DF2AA401FE
:100430002408063C031C332A87012408CE00FC2034
:100440003330240784008313000887002C08F80049
:1004500003192E2A0310870CF80B2A2A0130CE002C
:10046000AA21A40A182A8A110A12F92A84018313DC
:100470001F30830583161F149F141F159F1107300B
:100480009C0005308312A0001430A100A601A90130
:100490000530AA00AB010130AC00AD01AE00023066
:1004A000AF000330B0000430B1000530B2000130BD
:1004B000B3000230B4000430B5000830B60010308C
:1004C000B7002030B8004030B9000D30BA00093014
:1004D000BB00BC010B30BD001930BE000B30BF00AB
:1004E0001930C000C101C2011B30C300C4010B3070
:1004F000C500C6014230C700C801FF30C900CA01AB
:10050000CB01CC01CD010030831687008312C900D6
:10051000831688008312870101308800CC28D421FB
:10052000D421CA0A4B0803199C2A013A0319C62A86
:10053000033A0319E02AFA2A4A082002031CA22AD5
:10054000BF21C52ACA01AB0A2B08053C0318AA2AF9
:10055000DE29AB012B08053CAA00CC0A0319CD0A01
:1005600048084D02031CC52A031DBA2A47084C023D
:10057000031CC52ACD01CC01CA01A90A2908CB0058
:100580002908023C0319A901D421FA2A4A082102A8
:100590000318F829CA01A608031DD02AAC0AD12ADB
:1005A000AC032C08073C0318D72A0130A600260B01
:1005B000DF2AAC08031DDF2AA601CB01D421FA2AC9
:1005C0004A0821020318172ACA01A608031DEA2AAD
:1005D000AC0AEB2AAC032C08073C0318F12A0130C3
:1005E000A600260BF92AAC08031DF92AA601CB01A7
:0805F000D421FA2A912A6300CC
:02400E00723FFF
:00000001FF
;PIC16F877A
