:1000000000308A00182900000A108A100A1182079D
:10001000013400340034003401340134003400343D
:10002000003401340134003400340034013401342C
:10003000013401340134013401340034003400341B
:10004000013401340034003400340134003401340C
:1000500001340134003401340134013401340034FA
:1000600001340034003400340134013400340034ED
:1000700000340134013401340134013400340134DA
:1000800000340034003401340134003400340034CE
:10009000013401340134013401340034F701F80132
:1000A0002C0803102D18F707F70CF80CAD18F707FC
:1000B000F70CF80C2D19F707F70CF80CAD19F7072A
:1000C000F70CF80C2D1AF707F70CF80CAD1AF70718
:1000D000F70CF80C2D1BF707F70CF80CAD1BF70706
:1000E000F70CF80C00340330F700F70B75280034D8
:1000F000A0012008043C031C9D282908AC002330E3
:10010000AD004E207808AB002A08AC000530AD00E9
:100110004E2078082B0720070420003A031D96285C
:10012000081073208810732088149B2808147320EB
:10013000881073208814A00A792800340130A9009F
:1001400029308400831300080319B3280630F8000F
:10015000F701F70BA928F80BA8287B30F700F70B5D
:10016000AF28800BA6280034211C0613211806177F
:100170002808A900AA017820221C061022180614BB
:100180009E20211C0610211806142808A900013001
:10019000AA007820221C8610221886149E20211C7A
:1001A0008610211886142808A9000230AA00782099
:1001B000221C0611221806159E20211C061121184A
:1001C00006152808A9000330AA007820221C8611F1
:1001D000221886159E20211C8611211886152808B4
:1001E000A9000430AA007820221C06122218061644
:1001F0009E20211C0612211806162808A900053089
:10020000AA007820221C8612221886169E20211C05
:100210008612211886162808A9000630AA00782020
:10022000221C0613221806179E208A110A124B2937
:10023000840183131F30830583161F149F141F1519
:100240009F1107309C0001308312A100A201A3017D
:10025000A4013230A500A601A70100308316860054
:100260008800831206108610061186110612861267
:10027000061308148814A30A0319A40A24082602E2
:10028000031C4C29031D482923082502031C4C2963
:100290002708A800B4285129A70A2708013C031CF5
:0602A000A7013B296300E9
:02400E00723FFF
:00000001FF
;PIC16F877A
