:1000000000308A00332900000A108A100A11820782
:10001000003400340034003400340034003411342F
:100020001134113415341B341B3411341134113490
:1000300011341F34113411340E3411341334133489
:1000400015341934193411340E3411341134113477
:100050001134113411341134113411341F3411346A
:1000600011340E341E341034103410341034103463
:1000700010341F34043404340434043404341F347E
:100080001E34093409340934093409341E34113456
:10009000113411341F34113411340E341E34093428
:1000A00009340934093409341E341F34103410342F
:1000B0001E34103410341F340E34113401340E3415
:1000C000103411340E340330F700F70B6528003478
:1000D0000811632008158A110A12752963208810F7
:1000E000632088140034A00120080F3C031CC6289C
:1000F00026302007840083130008BF000730C000AB
:10010000F701F8013F0803104018F707F70CF80C47
:10011000C018F707F70CF80C4019F707F70CF80CA4
:10012000C019F707F70CF80C401AF707F70CF80C92
:10013000C01AF707F70CF80C401BF707F70CF80C80
:10014000C01BF707F70CF80C3D0878070420F800EF
:100150008700071E0810071A08146E20871D081054
:10016000871908146E20071D0810071908146E203F
:10017000871C0810871808146E20071C0810071821
:1001800008146E2008106E20A00A74280034013074
:10019000BD003D308400831300080319DC280630BD
:1001A000F800F701F70BD228F80BD1287B30F700C5
:1001B000F70BD828800BCF280034211C06132118F8
:1001C0000617BD017320221C061022180614C72032
:1001D000211C0610211806140130BD007320221CBA
:1001E000861022188614C720211C86102118861418
:1001F0000230BD007320221C061122180615C720EC
:10020000211C0611211806150330BD007320221C85
:10021000861122188615C720211C861121188615E3
:100220000430BD007320221C061222180616C720B7
:10023000211C0612211806160530BD007320221C51
:10024000861222188616C720211C861221188616AF
:100250000630BD007320221C061322180617C72083
:100260008A110A129829840183131F30830583168B
:100270001F149F141F159F1107309C00013083121B
:10028000A100A201A301A400A501A601A7000230BC
:10029000A8000330A9000430AA000530AB000630E6
:1002A000AC000730AD000830AE000930AF000A30B6
:1002B000B0000B30B1000C30B200B3010130B4001B
:1002C0000230B5000830B600B701FF30B800B90100
:1002D000BA01003083168600880087008312B800B8
:1002E00086018701013088006828B90A0319BA0A13
:1002F0003A083702031C8229031D81293908360276
:100300000318DD28BA01B9012608BB00BC013C086E
:100310000F3C031C9829BB0A3B080D3C0319BB0189
:1003200026303C07840083133B088000BC0A8729E1
:0403300075296300C8
:02400E00723FFF
:00000001FF
;PIC16F877A
