:1000000000308A005C2A00000A108A100A11820758
:100010001F341F341F341F341F341F341F340E3459
:100020000E340E340E340A3404340E340E340E34CE
:100030000E3400340E340E3411340E340E340C34BD
:100040000A3406340E340E3411340E340E340E34A9
:100050000E340E340E340E340E340E3400340E349E
:100060000E34113400340F340F340F340F340F3486
:100070000F3400341B341B341B341B341B3400344A
:1000800001341634163416341634163401340E3452
:100090000E340E3400340E340E3411340134163460
:1000A0001634163416341634013400340F340F3439
:1000B00003340F340F34003401341E341E34113431
:1000C0000F340F34103408110330F700F70B662893
:1000D00008158A110A12902AF701F801390803104D
:1000E0003A18F707F70CF80CBA18F707F70CF80CE2
:1000F0003A19F707F70CF80CBA19F707F70CF80CD0
:100100003A1AF707F70CF80CBA1AF707F70CF80CBD
:100110003A1BF707F70CF80CBA1BF707F70CF80CAB
:1001200000340330F700F70B932888100330F700F2
:10013000F70B9828881400342D08B9000730BA004E
:100140006C20370878070420F80087002A08043C50
:100150000318AF28071E0810071A081491202A0850
:10016000033C0318B828871D08108719081491202C
:100170002A08023C0318C128071D08100719081493
:1001800091202A08013C0318CA28871C08108718E8
:10019000081491202A08003C0318D328071C0810D3
:1001A000071808149120081491200130A70027088F
:1001B000043C031C06292D30270784008313000804
:1001C000B9000730BA006C20370878070420F8001F
:1001D0008700071E0810071A08149120871D0810B1
:1001E000871908149120071D081007190814912079
:1001F000871C0810871808149120071C081007187E
:100200000814912008149120A70AD7283208B900B1
:100210000730BA006C20370878070420F800870000
:100220002B08003C03181929071E0810071A081488
:1002300091202B08013C03182229871D08108719DB
:10024000081491202B08023C03182B29071D0810C5
:100250000719081491202B08033C03183429871C24
:1002600008108718081491202B08043C03183D2916
:10027000071C081007180814912000343730840038
:1002800083130008031951290630F800F701F70B12
:100290004729F80B46297B30F700F70B4D29800BD7
:1002A00044290034281C061328180617B7019C207F
:1002B000291C0610291806140130B7003E21281CFD
:1002C0000610281806140130B7009C20291C86103F
:1002D000291886140130B7003E21281C86102818E2
:1002E00086140230B7009C20291C06112918061517
:1002F0000130B7003E21281C0611281806150330CE
:10030000B7009C20291C8611291886150130B700DA
:100310003E21281C8611281886150430B7009C2021
:10032000291C0612291806160130B7003E21281C88
:100330000612281806160530B7009C20291C8612C4
:10034000291886160130B7003E21281C861228186D
:1003500086160630B7009C20291C0613291806179C
:100360000130B7003E2100342D08A200A30123086C
:10037000053C031CC829A20A22080D3C0319A2014E
:100380002D3023078400831322088000A30AB72995
:100390008A110A12A52A0130A5002508C73C031CB2
:1003A000D4295221A50ACD2900348601B7019C2009
:1003B00001308700070886002C08F8000319E4299B
:1003C0000310860DF80BE0290130B7003E218601AD
:1003D0000130B7009C2002308700070886002C08F7
:1003E000F8000319F7290310860DF80BF3290130E3
:1003F000B7003E2186010230B7009C200430870000
:10040000070886002C08F80003190A2A0310860D35
:10041000F80B062A0130B7003E2186010330B700F1
:100420009C2008308700070886002C08F800031974
:100430001D2A0310860DF80B192A0130B7003E2142
:1004400086010430B7009C20103087000708860022
:100450002C08F8000319302A0310860DF80B2C2AFB
:100460000130B7003E2186010530B7009C202030C6
:100470008700070886002C08F8000319432A031098
:10048000860DF80B3F2A0130B7003E218601063069
:10049000B7009C2040308700070886002C08F80031
:1004A0000319562A0310860DF80B522A0130B700A3
:1004B0003E218A110A12CE2A840183131F3083053C
:1004C00083161F149F141F159F1107309C000830BE
:1004D0008312A0001430A100A601A8010130A900D8
:1004E0000530AA00AB010130AC00AD01AE00023016
:1004F000AF000330B0000430B1000530B200FF306F
:10050000B300B401B501B60100308316860088003F
:1005100087008312B30086018701013088006328B9
:10052000B40A35080319982A013A0319B42ACF2AC4
:1005300034082002031C9E2A5221B32AB401AB0ABC
:100540002B08053C0318A62AB429AB012B08053C4F
:10055000AA00B60A36084F3C0318B32A0130B5008A
:10056000B601B401CB21CF2A340821020318D529C2
:10057000B401A608031DBE2AAC0AC02A0130AC0291
:100580002C08073C0318C62A0130A600260BCE2AE9
:10059000AC08031DCE2AA601B501CB21CF2A902A93
:0205A0006300F6
:02400E00723FFF
:00000001FF
;PIC16F877A
