:1000000000308A00612900000A108A100A11820754
:100010000034003400340034003400340034003440
:100020000034003400340034003400340034003430
:100030000034003400340034003400340034003420
:100040000034003400340034003400340034003410
:1000500000340034003401340034003400340134FE
:1000600001340034003400340134013400340034ED
:1000700000340134013401340134013401340134D9
:1000800000340034003401340134003400340034CE
:1000900001340034013401340134003401340134BA
:1000A00001340134003401340034003400340134AC
:1000B000013400340034003401340134013401349B
:1000C000013400340134003400340034013401348C
:1000D000003400340034013401340134013401347B
:1000E000003400340134013401340034013400346C
:1000F000003400340134013400340034003400345E
:10010000013400340034003400340134003400344D
:10011000003400340134003400340034013400343D
:1001200001340134013400340330F700F70B962812
:1001300000340811942008158A110A128229F70147
:10014000F801300803103118F707F70CF80CB11854
:10015000F707F70CF80C3119F707F70CF80CB11981
:10016000F707F70CF80C311AF707F70CF80CB11A6F
:10017000F707F70CF80C311BF707F70CF80CB11B5D
:10018000F707F70CF80C0034A0012008023C031C10
:10019000F428A1012108043C031CF2282430200784
:1001A000840083130008B0002330B1009F2078083A
:1001B000AF002D08B0000530B1009F2078082F0750
:1001C00021070420003A031DEB2808109420881012
:1001D00094208814F02808149420881094208814FF
:1001E000A10ACA28A00AC52800340130AD002D306C
:1001F00084008313000803190A290630F800F70168
:10020000F70B0029F80BFF287B30F700F70B0629C6
:10021000800BFD280034221C061322180617AD019E
:10022000C420231C061023180614F520221C0610D7
:10023000221806140130AD00C420231C8610231898
:100240008614F520221C8610221886140230AD0078
:10025000C420231C061123180615F520221C0611A4
:10026000221806150330AD00C420231C8611231864
:100270008615F520221C8611221886150430AD0043
:10028000C420231C061223180616F520221C061271
:10029000221806160530AD00C420231C8612231830
:1002A0008616F520221C8612221886160630AD000E
:1002B000C420231C061323180617F5208A110A12DE
:1002C000A529840183131F30830583161F149F14EF
:1002D0001F159F1107309C0001308312A200A3015B
:1002E000A401A5000230A600A701A8013230A90090
:1002F000AA0100308316860088008312860101302F
:1003000088009928A70A0319A80A28082A02031CAA
:100310008F29031D8E292708290203180B29A801FC
:10032000A7012408AB00AC012C08023C031CA52942
:10033000AB0A2B08053C0319AB0124302C078400C1
:0E03400083132B088000AC0A942982296300E5
:02400E00723FFF
:00000001FF
;PIC16F877A
