:1000000000308A000F2A00000A108A100A118207A5
:100010001F341F341F341F341F341F341F340E3459
:100020000E340E340E340A3404340E340E340E34CE
:100030000E3400340E340E3411340E340E340C34BD
:100040000A3406340E340E3411340E340E340E34A9
:100050000E340E340E340E340E340E3400340E349E
:100060000E34113400340F340F340F340F340F3486
:100070000F3400341B341B341B341B341B3400344A
:1000800001341634163416341634163401340E3452
:100090000E340E3400340E340E3411340134163460
:1000A0001634163416341634013400340F340F3439
:1000B00003340F340F34003401341E341E34113431
:1000C0000F340F34103408110330F700F70B662893
:1000D00008158A110A12502AF701F8014208031084
:1000E0004318F707F70CF80CC318F707F70CF80CD0
:1000F0004319F707F70CF80CC319F707F70CF80CBE
:10010000431AF707F70CF80CC31AF707F70CF80CAB
:10011000431BF707F70CF80CC31BF707F70CF80C99
:1001200000340330F700F70B932888100330F700F2
:10013000F70B9828881400342F08C2000730C3003A
:100140006C20400878070420F800A8002C08043C24
:100150000318AF28281E0810281A081491202C080C
:10016000033C0318B828A81D0810A81908149120EA
:100170002C08023C0318C128281D0810281908144F
:1001800091202C08013C0318CA28A81C0810A818A4
:10019000081491202C08003C0318D328281C0810B0
:1001A000281808149120081491200130A90029086A
:1001B000043C031C06292F30290784008313000800
:1001C000C2000730C3006C20400878070420F80004
:1001D000A800281E0810281A08149120A81D08102D
:1001E000A81908149120281D081028190814912016
:1001F000A81C0810A81808149120281C08102818FA
:100200000814912008149120A90AD7283408C200A4
:100210000730C3006C20400878070420F800A800CD
:100220002D08003C03181929281E0810281A081444
:1002300091202D08013C03182229A81D0810A81997
:10024000081491202D08023C03182B29281D0810A2
:100250002819081491202D08033C03183429A81CE0
:100260000810A818081491202D08043C03183D29F3
:10027000281C0810281808149120003440308400ED
:1002800083130008031951290630F800F701F70B12
:100290004729F80B46297B30F700F70B4D29800BD7
:1002A00044290034A5012508063C031C6629860163
:1002B0002508C0009C2035302507840083130008E2
:1002C00086000130C0003E21A50A532900340130C8
:1002D000A6002608633C031C70295221A60A69293E
:1002E00000342F08A200A3012308053C031C852924
:1002F000A20A22080D3C0319A2012F302307840013
:10030000831322088000A30A74298A110A12672A1B
:100310008601C0019C200130A800280886002E0814
:10032000F800031997290310860DF80B9329013063
:10033000C0003E2186010130C0009C200230A80090
:10034000280886002E08F8000319AA290310860D34
:10035000F80BA6290130C0003E2186010230C00002
:100360009C200430A800280886002E08F8000319F5
:10037000BD290310860DF80BB9290130C0003E21BC
:1003800086010330C0009C200830A80028088600A1
:100390002E08F8000319D0290310860DF80BCC297C
:1003A0000130C0003E2186010430C0009C20103086
:1003B000A800280886002E08F8000319E329031076
:1003C000860DF80BDF290130C0003E218601053083
:1003D000C0009C202030A800280886002E08F800C5
:1003E0000319F6290310860DF80BF2290130C0001D
:1003F0003E2186010630C0009C204030A80028081D
:1004000086002E08F8000319092A0310860DF80B40
:10041000052A0130C0003E218A110A128F2A840168
:1004200083131F30830583161F149F141F159F11FC
:1004300007309C0008308312A0001430A100A701EF
:10044000AA010130AB000530AC00AD010130AE00B7
:10045000AF000230B0000330B1000430B20005300C
:10046000B300B4010130B5000230B6000430B7006B
:100470000830B8001030B9002030BA004030BB005E
:10048000FF30BC00BD01BE01BF01003083168600F5
:10049000880087008312BC00860101308800632831
:1004A00067216721BD0A3E0803195A2A013A031938
:1004B000762A902A3D082002031C602A5221752AC0
:1004C000BD01AD0A2D08053C0318682A7129AD014C
:1004D0002D08053CAC00BF0A3F084D3C0318752AA7
:1004E0000130BE00BF01BD016721902A3D082102F5
:1004F00003188829BD01A708031D802AAE0A812A96
:10050000AE032E08073C0318872A0130A700270BEB
:100510008F2AAE08031D8F2AA701BE016721902AEA
:04052000522A6300F8
:02400E00723FFF
:00000001FF
;PIC16F877A
