:1000000000308A00362A00000A108A100A1182077E
:100010001F341F341F341F341F341F341F340E3459
:100020000E340E3400340E340E34113401340E34D8
:100030000E3401340E340E34013410340F340F34C6
:100040000F340F340F341034013416341634163490
:1000500016341634013400340F340F3401340F34A5
:100060000F3400340F340F340F3403340F340F3493
:10007000003411340E340E340C340F340E34113479
:100080000E340E340E3400340E340E340E3400347C
:100090001B341B341B341B341B34003413340B341B
:1000A0001B341B341B341B3400340E340D340B341E
:1000B00007340B340D340E3400340F340F340F3446
:1000C0000F340F340F340E340E340E340E340A3421
:1000D00004340E340E340E340C340A3406340E3428
:1000E0000E3411340E340E340E340E340E341134FA
:1000F0000F340F340F3401340E340E340134123403
:100100000D340D340D340D340D3413340E340D34E0
:100110000B3401340E340E34013411340E341E34D9
:1001200011340F340E3411341B341B341B341B3484
:100130001B341B34003411340E340E340E340E34A0
:100140000E340E341B341B34153415340E340E3477
:100150000E34153415340A340A340E340F340E3488
:100160000E340E3415341B3415340E340E341B3457
:100170001B341B341B3415340E340E3400340F344E
:1001800017341B341D341E3400340E340E340C343A
:100190000A3406340F3408340811CE2808158A11A1
:1001A0000A12BB2AF701F801680803106918F7075B
:1001B000F70CF80CE918F707F70CF80C6919F707B2
:1001C000F70CF80CE919F707F70CF80C691AF707A0
:1001D000F70CF80CE91AF707F70CF80C691BF7078E
:1001E000F70CF80CE91BF707F70CF80C0034F828AB
:1001F0008810FA28881400343A302D0784008313BD
:100200000008E8000730E900D220650878070420DC
:10021000F800A7002A08043C03181329271E081019
:10022000271A0814F7202A08033C03181C29A71DC5
:100230000810A7190814F7202A08023C03182529DA
:10024000271D081027190814F7202A08013C031855
:100250002E29A71C0810A7180814F7202A08003C0C
:1002600003183729271C081027180814F72008142A
:10027000F7200130A8002808043C031C6E292D300B
:100280002807840083133A30000784008313000892
:10029000E8000730E900D220650878070420F8005C
:1002A000A700271E0810271A0814F720A71D0810FA
:1002B000A7190814F720271D081027190814F7207C
:1002C000A71C0810A7180814F720271C08102718C7
:1002D0000814F7200814F720A80A3B293A303207FF
:1002E000840083130008E8000730E900D220650885
:1002F00078070420F800A7002B08003C0318852984
:10030000271E0810271A0814F7202B08013C031891
:100310008E29A71D0810A7190814F7202B08023CE6
:1003200003189729271D081027190814F7202B08F0
:10033000033C0318A029A71C0810A7180814F720CD
:100340002B08043C0318A929271C08102718081497
:10035000F720003465308400831300080319BE2998
:100360000130F800F701F70BB329F80BB2294A3036
:10037000F700F70BB929BC29800BB0290034A40180
:100380002408063C031CD32987012408E500FC202F
:100390003330240784008313000887000130E50010
:1003A000AA21A40AC02900340130A5002508633C15
:1003B000031CDD29BF21A50AD62900342D08A2007F
:1003C000A3012308053C031CF529A20A5C082202AC
:1003D000031DED29DD080319A2012D302307840038
:1003E000831322088000A30AE1298A110A12D52A60
:1003F000A4012408063C031C142A87012408E500F4
:10040000FC203330240784008313000887002C0865
:10041000F80003190F2A0310870DF80B0B2A01307F
:10042000E500AA21A40AF9298A110A120B2BA401BA
:100430002408063C031C332A87012408E500FC201D
:100440003330240784008313000887002C08F80049
:1004500003192E2A0310870CF80B2A2A0130E50015
:10046000AA21A40A182A8A110A12252B84018313AF
:100470001F30830583161F149F141F159F1107300B
:100480009C0005308312A0001430A100A601A90130
:100490000530AA00AB010130AC00AD01AE00023066
:1004A000AF000330B0000430B1000530B2000130BD
:1004B000B3000230B4000430B5000830B60010308C
:1004C000B7002030B8004030B9000130BA00093020
:1004D000BB000B30BC000F30BD00BE011430BF00AC
:1004E0000530C000C1011630C2000530C3000E3017
:1004F000C4000430C5000530C600C7010C30C80078
:100500000F30C9001330CA00CB010D30CC000530CC
:10051000CD000A30CE000F30CF001230D0000530B1
:10052000D1001330D200D3011230D4000530D500F1
:100530000730D6000130D7000C30D8000F30D9007A
:100540001330DA00DB012230DC00DD01CC30DE00CC
:10055000DF01FF30E000E101E201E301E4010030EE
:10056000831687008312E0008316880083128701B8
:1005700001308800CC28D421D421E10A6208031973
:10058000C82A013A0319F22A033A03190C2B262B25
:1005900061082002031CCE2ABF21F12AE101AB0A27
:1005A0002B08053C0318D62ADE29AB012B08053C95
:1005B000AA00E30A0319E40A5F086402031CF12A93
:1005C000031DE62A5E086302031CF12AE401E3012D
:1005D000E101A90A2908E2002908023C0319A9013E
:1005E000D421262B610821020318F829E101A6086D
:1005F000031DFC2AAC0AFD2AAC032C08073C031897
:10060000032B0130A600260B0B2BAC08031D0B2B74
:10061000A601E201D421262B610821020318172A22
:10062000E101A608031D162BAC0A172BAC032C08FE
:10063000073C03181D2B0130A600260B252BAC0808
:10064000031D252BA601E201D421262BBD2A630020
:02400E00723FFF
:00000001FF
;PIC16F877A
